{
  "contractName": "TrickleDownSplitter",
  "abi": [
    {
      "constant": false,
      "inputs": [
        {
          "name": "account",
          "type": "address"
        }
      ],
      "name": "addWhitelisted",
      "outputs": [],
      "payable": false,
      "stateMutability": "nonpayable",
      "type": "function"
    },
    {
      "constant": false,
      "inputs": [
        {
          "name": "account",
          "type": "address"
        }
      ],
      "name": "removeWhitelisted",
      "outputs": [],
      "payable": false,
      "stateMutability": "nonpayable",
      "type": "function"
    },
    {
      "constant": true,
      "inputs": [
        {
          "name": "",
          "type": "uint256"
        }
      ],
      "name": "participants",
      "outputs": [
        {
          "name": "",
          "type": "address"
        }
      ],
      "payable": false,
      "stateMutability": "view",
      "type": "function"
    },
    {
      "constant": true,
      "inputs": [
        {
          "name": "account",
          "type": "address"
        }
      ],
      "name": "isWhitelisted",
      "outputs": [
        {
          "name": "",
          "type": "bool"
        }
      ],
      "payable": false,
      "stateMutability": "view",
      "type": "function"
    },
    {
      "constant": false,
      "inputs": [],
      "name": "unpause",
      "outputs": [],
      "payable": false,
      "stateMutability": "nonpayable",
      "type": "function"
    },
    {
      "constant": true,
      "inputs": [
        {
          "name": "account",
          "type": "address"
        }
      ],
      "name": "isPauser",
      "outputs": [
        {
          "name": "",
          "type": "bool"
        }
      ],
      "payable": false,
      "stateMutability": "view",
      "type": "function"
    },
    {
      "constant": false,
      "inputs": [],
      "name": "renounceWhitelistAdmin",
      "outputs": [],
      "payable": false,
      "stateMutability": "nonpayable",
      "type": "function"
    },
    {
      "constant": true,
      "inputs": [],
      "name": "paused",
      "outputs": [
        {
          "name": "",
          "type": "bool"
        }
      ],
      "payable": false,
      "stateMutability": "view",
      "type": "function"
    },
    {
      "constant": false,
      "inputs": [],
      "name": "renouncePauser",
      "outputs": [],
      "payable": false,
      "stateMutability": "nonpayable",
      "type": "function"
    },
    {
      "constant": false,
      "inputs": [
        {
          "name": "account",
          "type": "address"
        }
      ],
      "name": "addWhitelistAdmin",
      "outputs": [],
      "payable": false,
      "stateMutability": "nonpayable",
      "type": "function"
    },
    {
      "constant": false,
      "inputs": [
        {
          "name": "account",
          "type": "address"
        }
      ],
      "name": "addPauser",
      "outputs": [],
      "payable": false,
      "stateMutability": "nonpayable",
      "type": "function"
    },
    {
      "constant": false,
      "inputs": [],
      "name": "pause",
      "outputs": [],
      "payable": false,
      "stateMutability": "nonpayable",
      "type": "function"
    },
    {
      "constant": true,
      "inputs": [
        {
          "name": "account",
          "type": "address"
        }
      ],
      "name": "isWhitelistAdmin",
      "outputs": [
        {
          "name": "",
          "type": "bool"
        }
      ],
      "payable": false,
      "stateMutability": "view",
      "type": "function"
    },
    {
      "constant": false,
      "inputs": [],
      "name": "renounceWhitelisted",
      "outputs": [],
      "payable": false,
      "stateMutability": "nonpayable",
      "type": "function"
    },
    {
      "inputs": [],
      "payable": false,
      "stateMutability": "nonpayable",
      "type": "constructor"
    },
    {
      "payable": true,
      "stateMutability": "payable",
      "type": "fallback"
    },
    {
      "anonymous": false,
      "inputs": [
        {
          "indexed": false,
          "name": "value",
          "type": "uint256"
        },
        {
          "indexed": false,
          "name": "participants",
          "type": "address[]"
        }
      ],
      "name": "FundsSplit",
      "type": "event"
    },
    {
      "anonymous": false,
      "inputs": [
        {
          "indexed": true,
          "name": "account",
          "type": "address"
        }
      ],
      "name": "WhitelistedAdded",
      "type": "event"
    },
    {
      "anonymous": false,
      "inputs": [
        {
          "indexed": true,
          "name": "account",
          "type": "address"
        }
      ],
      "name": "WhitelistedRemoved",
      "type": "event"
    },
    {
      "anonymous": false,
      "inputs": [
        {
          "indexed": true,
          "name": "account",
          "type": "address"
        }
      ],
      "name": "WhitelistAdminAdded",
      "type": "event"
    },
    {
      "anonymous": false,
      "inputs": [
        {
          "indexed": true,
          "name": "account",
          "type": "address"
        }
      ],
      "name": "WhitelistAdminRemoved",
      "type": "event"
    },
    {
      "anonymous": false,
      "inputs": [
        {
          "indexed": false,
          "name": "account",
          "type": "address"
        }
      ],
      "name": "Paused",
      "type": "event"
    },
    {
      "anonymous": false,
      "inputs": [
        {
          "indexed": false,
          "name": "account",
          "type": "address"
        }
      ],
      "name": "Unpaused",
      "type": "event"
    },
    {
      "anonymous": false,
      "inputs": [
        {
          "indexed": true,
          "name": "account",
          "type": "address"
        }
      ],
      "name": "PauserAdded",
      "type": "event"
    },
    {
      "anonymous": false,
      "inputs": [
        {
          "indexed": true,
          "name": "account",
          "type": "address"
        }
      ],
      "name": "PauserRemoved",
      "type": "event"
    },
    {
      "constant": false,
      "inputs": [
        {
          "name": "_participants",
          "type": "address[]"
        }
      ],
      "name": "setParticipants",
      "outputs": [],
      "payable": false,
      "stateMutability": "nonpayable",
      "type": "function"
    },
    {
      "constant": false,
      "inputs": [
        {
          "name": "participant",
          "type": "address"
        }
      ],
      "name": "addParticipant",
      "outputs": [],
      "payable": false,
      "stateMutability": "nonpayable",
      "type": "function"
    },
    {
      "constant": false,
      "inputs": [
        {
          "name": "index",
          "type": "uint256"
        }
      ],
      "name": "removeParticipantAtIndex",
      "outputs": [],
      "payable": false,
      "stateMutability": "nonpayable",
      "type": "function"
    },
    {
      "constant": false,
      "inputs": [
        {
          "name": "value",
          "type": "uint256"
        }
      ],
      "name": "splitFunds",
      "outputs": [],
      "payable": true,
      "stateMutability": "payable",
      "type": "function"
    },
    {
      "constant": false,
      "inputs": [],
      "name": "withdrawAllFunds",
      "outputs": [],
      "payable": false,
      "stateMutability": "nonpayable",
      "type": "function"
    }
  ],
  "bytecode": "0x60806040523480156200001157600080fd5b5062000023336200005b60201b60201c565b6001805460ff191690556200003f33620000ad602090811b901c565b6200005533620000ff60201b6200045f1760201c565b62000317565b620000768160006200017b60201b620011901790919060201c565b6040516001600160a01b038216907f6719d08c1888103bea251a4ed56406bd0c3e69723c8a1686e017e7bbe159b6f890600090a250565b620000c88160026200017b60201b620011901790919060201c565b6040516001600160a01b038216907f22380c05984257a1cb900161c713dd71d39e74820f1aea43bd3f1bdd2096129990600090a250565b62000110336200021f60201b60201c565b62000167576040517f08c379a0000000000000000000000000000000000000000000000000000000008152600401808060200182810382526040815260200180620018316040913960400191505060405180910390fd5b62000178816200024260201b60201c565b50565b6200018d82826200029460201b60201c565b15620001fa57604080517f08c379a000000000000000000000000000000000000000000000000000000000815260206004820152601f60248201527f526f6c65733a206163636f756e7420616c72656164792068617320726f6c6500604482015290519081900360640190fd5b6001600160a01b0316600090815260209190915260409020805460ff19166001179055565b60006200023c8260026200029460201b62000fa61790919060201c565b92915050565b6200025d8160036200017b60201b620011901790919060201c565b6040516001600160a01b038216907fee1504a83b6d4a361f4c1dc78ab59bfa30d6a3b6612c403e86bb01ef2984295f90600090a250565b60006001600160a01b038216620002f7576040517f08c379a00000000000000000000000000000000000000000000000000000000081526004018080602001828103825260228152602001806200180f6022913960400191505060405180910390fd5b506001600160a01b03166000908152602091909152604090205460ff1690565b6114e880620003276000396000f3fe6080604052600436106101145760003560e01c80635c975abb116100a05780638456cb59116100645780638456cb5914610352578063bb5f747b14610367578063d6cd94731461039a578063dfafe10f146103af578063e004af5c146103e257610114565b80635c975abb146102985780636ef8d66d146102ad5780637362d9c8146102c25780638087859c146102f557806382dc1ec41461031f57610114565b80633af32abf116100e75780633af32abf146101df5780633f4ba83a1461022657806346fbf68e1461023b57806349649fbf1461026e5780634c5a628c1461028357610114565b806310154bad14610116578063291d9549146101495780632f1335cf1461017c57806335c1d34914610199575b005b34801561012257600080fd5b506101146004803603602081101561013957600080fd5b50356001600160a01b031661045f565b34801561015557600080fd5b506101146004803603602081101561016c57600080fd5b50356001600160a01b03166104b2565b6101146004803603602081101561019257600080fd5b5035610502565b3480156101a557600080fd5b506101c3600480360360208110156101bc57600080fd5b5035610798565b604080516001600160a01b039092168252519081900360200190f35b3480156101eb57600080fd5b506102126004803603602081101561020257600080fd5b50356001600160a01b03166107bf565b604080519115158252519081900360200190f35b34801561023257600080fd5b506101146107d8565b34801561024757600080fd5b506102126004803603602081101561025e57600080fd5b50356001600160a01b03166108b8565b34801561027a57600080fd5b506101146108ca565b34801561028f57600080fd5b5061011461099c565b3480156102a457600080fd5b506102126109a7565b3480156102b957600080fd5b506101146109b1565b3480156102ce57600080fd5b50610114600480360360208110156102e557600080fd5b50356001600160a01b03166109ba565b34801561030157600080fd5b506101146004803603602081101561031857600080fd5b5035610a0a565b34801561032b57600080fd5b506101146004803603602081101561034257600080fd5b50356001600160a01b0316610ba8565b34801561035e57600080fd5b50610114610bf8565b34801561037357600080fd5b506102126004803603602081101561038a57600080fd5b50356001600160a01b0316610cd1565b3480156103a657600080fd5b50610114610ce4565b3480156103bb57600080fd5b50610114600480360360208110156103d257600080fd5b50356001600160a01b0316610ced565b3480156103ee57600080fd5b506101146004803603602081101561040557600080fd5b81019060208101813564010000000081111561042057600080fd5b82018360208201111561043257600080fd5b8035906020019184602083028401116401000000008311171561045457600080fd5b509092509050610d99565b61046833610cd1565b6104a657604051600160e51b62461bcd0281526004018080602001828103825260408152602001806114206040913960400191505060405180910390fd5b6104af81610e46565b50565b6104bb33610cd1565b6104f957604051600160e51b62461bcd0281526004018080602001828103825260408152602001806114206040913960400191505060405180910390fd5b6104af81610e8e565b60015460ff16156105535760408051600160e51b62461bcd0281526020600482015260106024820152600160821b6f14185d5cd8589b194e881c185d5cd95902604482015290519081900360640190fd5b303161059357604051600160e51b62461bcd0281526004018080602001828103825260238152602001806114606023913960400191505060405180910390fd5b600081116105eb5760408051600160e51b62461bcd02815260206004820152601b60248201527f4e6f2076616c756520686173206265656e207370656369666965640000000000604482015290519081900360640190fd5b600454612710906000610604838363ffffffff610ed616565b90506000610618858563ffffffff610ed616565b9050600061062c828463ffffffff610f4316565b905060005b848110156107075760006004828154811061064857fe5b60009182526020822001546040516001600160a01b039091169250829085908381818185875af1925050503d806000811461069f576040519150601f19603f3d011682016040523d82523d6000602084013e6106a4565b606091505b50509050806106fd5760408051600160e51b62461bcd02815260206004820152601460248201527f556e61626c6520746f2073656e642066756e6473000000000000000000000000604482015290519081900360640190fd5b5050600101610631565b507f1f646749c8749ad67f5962ab7129f0f6b737b972af0dcd92b7286acb07bde4988660046040518083815260200180602001828103825283818154815260200191508054801561078157602002820191906000526020600020905b81546001600160a01b03168152600190910190602001808311610763575b5050935050505060405180910390a1505050505050565b600481815481106107a557fe5b6000918252602090912001546001600160a01b0316905081565b60006107d260038363ffffffff610fa616565b92915050565b6107e1336108b8565b61081f57604051600160e51b62461bcd0281526004018080602001828103825260308152602001806113446030913960400191505060405180910390fd5b60015460ff166108795760408051600160e51b62461bcd02815260206004820152601460248201527f5061757361626c653a206e6f7420706175736564000000000000000000000000604482015290519081900360640190fd5b6001805460ff191690556040805133815290517f5db9ee0a495bf2e6ff9c91a7834c1ba4fdd244a5e8aa4e537bd38aeae4b073aa9181900360200190a1565b60006107d2818363ffffffff610fa616565b6108d3336107bf565b61091157604051600160e51b62461bcd02815260040180806020018281038252603a815260200180611483603a913960400191505060405180910390fd5b60405160009033903031908381818185875af1925050503d8060008114610954576040519150601f19603f3d011682016040523d82523d6000602084013e610959565b606091505b50509050806104af57604051600160e51b62461bcd0281526004018080602001828103825260218152602001806113746021913960400191505060405180910390fd5b6109a533611010565b565b60015460ff165b90565b6109a533611058565b6109c333610cd1565b610a0157604051600160e51b62461bcd0281526004018080602001828103825260408152602001806114206040913960400191505060405180910390fd5b6104af816110a0565b610a13336107bf565b610a5157604051600160e51b62461bcd02815260040180806020018281038252603a815260200180611483603a913960400191505060405180910390fd5b60045480610a9357604051600160e51b62461bcd0281526004018080602001828103825260278152602001806113956027913960400191505060405180910390fd5b6000610aa682600163ffffffff6110e816565b905080831115610b005760408051600160e51b62461bcd02815260206004820152601d60248201527f4172726179206f7574206f6620626f756e6473207265666572656e6365000000604482015290519081900360640190fd5b60048381548110610b0d57fe5b600091825260209091200180546001600160a01b0319169055828114610b8f5760048181548110610b3a57fe5b600091825260209091200154600480546001600160a01b039092169185908110610b6057fe5b9060005260206000200160006101000a8154816001600160a01b0302191690836001600160a01b031602179055505b6004805490610ba290600019830161127e565b50505050565b610bb1336108b8565b610bef57604051600160e51b62461bcd0281526004018080602001828103825260308152602001806113446030913960400191505060405180910390fd5b6104af81611148565b610c01336108b8565b610c3f57604051600160e51b62461bcd0281526004018080602001828103825260308152602001806113446030913960400191505060405180910390fd5b60015460ff1615610c905760408051600160e51b62461bcd0281526020600482015260106024820152600160821b6f14185d5cd8589b194e881c185d5cd95902604482015290519081900360640190fd5b6001805460ff1916811790556040805133815290517f62e78cea01bee320cd4e420270b5ea74000d11b0c9f74754ebdbfc544b05a2589181900360200190a1565b60006107d260028363ffffffff610fa616565b6109a533610e8e565b610cf6336107bf565b610d3457604051600160e51b62461bcd02815260040180806020018281038252603a815260200180611483603a913960400191505060405180910390fd5b6001600160a01b038116610d4757600080fd5b600480546001810182556000919091527f8a35acfbc15ff81a39ae7d344fd709f28e8600b4aa8c65c6b64bfe7fe36bd19b0180546001600160a01b0319166001600160a01b0392909216919091179055565b610da2336107bf565b610de057604051600160e51b62461bcd02815260040180806020018281038252603a815260200180611483603a913960400191505060405180910390fd5b80610e355760408051600160e51b62461bcd02815260206004820152601f60248201527f4e6f206164647265737365732068617665206265656e20737570706c69656400604482015290519081900360640190fd5b610e41600483836112a2565b505050565b610e5760038263ffffffff61119016565b6040516001600160a01b038216907fee1504a83b6d4a361f4c1dc78ab59bfa30d6a3b6612c403e86bb01ef2984295f90600090a250565b610e9f60038263ffffffff61121416565b6040516001600160a01b038216907f270d9b30cf5b0793bbfd54c9d5b94aeb49462b8148399000265144a8722da6b690600090a250565b6000808211610f2f5760408051600160e51b62461bcd02815260206004820152601a60248201527f536166654d6174683a206469766973696f6e206279207a65726f000000000000604482015290519081900360640190fd5b6000828481610f3a57fe5b04949350505050565b600082610f52575060006107d2565b82820282848281610f5f57fe5b0414610f9f57604051600160e51b62461bcd0281526004018080602001828103825260218152602001806113dd6021913960400191505060405180910390fd5b9392505050565b60006001600160a01b038216610ff057604051600160e51b62461bcd0281526004018080602001828103825260228152602001806113fe6022913960400191505060405180910390fd5b506001600160a01b03166000908152602091909152604090205460ff1690565b61102160028263ffffffff61121416565b6040516001600160a01b038216907f0a8eb35e5ca14b3d6f28e4abf2f128dbab231a58b56e89beb5d636115001e16590600090a250565b61106960008263ffffffff61121416565b6040516001600160a01b038216907fcd265ebaf09df2871cc7bd4133404a235ba12eff2041bb89d9c714a2621c7c7e90600090a250565b6110b160028263ffffffff61119016565b6040516001600160a01b038216907f22380c05984257a1cb900161c713dd71d39e74820f1aea43bd3f1bdd2096129990600090a250565b6000828211156111425760408051600160e51b62461bcd02815260206004820152601e60248201527f536166654d6174683a207375627472616374696f6e206f766572666c6f770000604482015290519081900360640190fd5b50900390565b61115960008263ffffffff61119016565b6040516001600160a01b038216907f6719d08c1888103bea251a4ed56406bd0c3e69723c8a1686e017e7bbe159b6f890600090a250565b61119a8282610fa6565b156111ef5760408051600160e51b62461bcd02815260206004820152601f60248201527f526f6c65733a206163636f756e7420616c72656164792068617320726f6c6500604482015290519081900360640190fd5b6001600160a01b0316600090815260209190915260409020805460ff19166001179055565b61121e8282610fa6565b61125c57604051600160e51b62461bcd0281526004018080602001828103825260218152602001806113bc6021913960400191505060405180910390fd5b6001600160a01b0316600090815260209190915260409020805460ff19169055565b815481835581811115610e4157600083815260209020610e41918101908301611305565b8280548282559060005260206000209081019282156112f5579160200282015b828111156112f55781546001600160a01b0319166001600160a01b038435161782556020909201916001909101906112c2565b5061130192915061131f565b5090565b6109ae91905b80821115611301576000815560010161130b565b6109ae91905b808211156113015780546001600160a01b031916815560010161132556fe506175736572526f6c653a2063616c6c657220646f6573206e6f742068617665207468652050617573657220726f6c654661696c656420746f20776974686472617720636f6e74726163742066756e6473546865207061727469636970616e7420616464726573736573206c69737420697320656d707479526f6c65733a206163636f756e7420646f6573206e6f74206861766520726f6c65536166654d6174683a206d756c7469706c69636174696f6e206f766572666c6f77526f6c65733a206163636f756e7420697320746865207a65726f206164647265737357686974656c69737441646d696e526f6c653a2063616c6c657220646f6573206e6f742068617665207468652057686974656c69737441646d696e20726f6c65546865726520617265206e6f20636f6e74726163742066756e647320746f2073656e6457686974656c6973746564526f6c653a2063616c6c657220646f6573206e6f742068617665207468652057686974656c697374656420726f6c65a165627a7a72305820bbd104997cdbc40c2e88bdb9c48c728e747422377249cc3327059c6eb325cffd0029526f6c65733a206163636f756e7420697320746865207a65726f206164647265737357686974656c69737441646d696e526f6c653a2063616c6c657220646f6573206e6f742068617665207468652057686974656c69737441646d696e20726f6c65",
  "source": "pragma solidity ^0.5.8;\n\nimport \"@openzeppelin/contracts/math/SafeMath.sol\";\nimport \"@openzeppelin/contracts/lifecycle/Pausable.sol\";\nimport \"@openzeppelin/contracts/access/roles/WhitelistedRole.sol\";\n\ncontract TrickleDownSplitter is Pausable, WhitelistedRole {\n    using SafeMath for uint256;\n\n    address payable[] public participants;\n\n    event FundsSplit(uint256 value, address payable[] participants);\n\n    modifier onlyWhenContractHasABalance() {\n        require(address(this).balance > 0, \"There are no contract funds to send\");\n        _;\n    }\n\n    constructor() public {\n        super.addWhitelisted(msg.sender);\n    }\n\n    function setParticipants(address payable[] calldata _participants) onlyWhitelisted external {\n        require(_participants.length > 0, \"No addresses have been supplied\");\n        participants = _participants;\n    }\n\n    function addParticipant(address payable participant) onlyWhitelisted external {\n        require(participant != address(0));\n        participants.push(participant);\n    }\n\n    function removeParticipantAtIndex(uint256 index) onlyWhitelisted external {\n        uint256 numOfParticipants = participants.length;\n        require(participants.length > 0, \"The participant addresses list is empty\");\n\n        uint256 lastParticipantIndex = numOfParticipants.sub(1);\n        require(index <= lastParticipantIndex, \"Array out of bounds reference\");\n\n        delete participants[index];\n\n        // When the token to delete is the last token, the swap operation is unnecessary\n        if (index != lastParticipantIndex) {\n            participants[index] = participants[lastParticipantIndex];\n        }\n\n        participants.length--;\n    }\n\n    function splitFunds(uint256 value)\n    whenNotPaused\n    onlyWhenContractHasABalance\n    external payable {\n        require(value > 0, \"No value has been specified\");\n\n        uint256 modulo = 10000;\n        uint256 numOfParticipants = participants.length;\n        uint256 individualSharePercentage = modulo.div(numOfParticipants);\n        uint256 singleUnitOfValue = value.div(modulo);\n        uint256 individualShare = singleUnitOfValue.mul(individualSharePercentage);\n\n        for (uint i = 0; i < numOfParticipants; i++) {\n            address payable participant = participants[i];\n            (bool success,) = participant.call.value(individualShare)(\"\");\n            require(success, \"Unable to send funds\");\n        }\n\n        emit FundsSplit(value, participants);\n    }\n\n    function withdrawAllFunds() onlyWhitelisted external {\n        (bool success,) = msg.sender.call.value(address(this).balance)(\"\");\n        require(success, \"Failed to withdraw contract funds\");\n    }\n\n    function() external payable {}\n}\n",
  "sourcePath": "/Users/vincentdealmeida/Projects/trickle-down/contracts/contracts/TrickleDownSplitter.sol",
  "compiler": {
    "name": "solc",
    "version": "0.5.8+commit.23d335f2.Emscripten.clang"
  },
  "schemaVersion": "3.0.17",
  "updatedAt": "2019-11-12T10:02:21.451Z",
  "networkType": "ethereum",
  "devdoc": {
    "methods": {
      "pause()": {
        "details": "Called by a pauser to pause, triggers stopped state."
      },
      "paused()": {
        "details": "Returns true if the contract is paused, and false otherwise."
      },
      "unpause()": {
        "details": "Called by a pauser to unpause, returns to normal state."
      }
    }
  },
  "userdoc": {
    "methods": {}
  }
}