{
  "contractName": "TrickleDownSplitter",
  "abi": [
    {
      "inputs": [],
      "payable": false,
      "stateMutability": "nonpayable",
      "type": "constructor"
    },
    {
      "anonymous": false,
      "inputs": [
        {
          "indexed": false,
          "internalType": "uint256",
          "name": "value",
          "type": "uint256"
        },
        {
          "indexed": false,
          "internalType": "address payable[]",
          "name": "participants",
          "type": "address[]"
        }
      ],
      "name": "FundsSplit",
      "type": "event"
    },
    {
      "anonymous": false,
      "inputs": [
        {
          "indexed": false,
          "internalType": "address",
          "name": "account",
          "type": "address"
        }
      ],
      "name": "Paused",
      "type": "event"
    },
    {
      "anonymous": false,
      "inputs": [
        {
          "indexed": true,
          "internalType": "address",
          "name": "account",
          "type": "address"
        }
      ],
      "name": "PauserAdded",
      "type": "event"
    },
    {
      "anonymous": false,
      "inputs": [
        {
          "indexed": true,
          "internalType": "address",
          "name": "account",
          "type": "address"
        }
      ],
      "name": "PauserRemoved",
      "type": "event"
    },
    {
      "anonymous": false,
      "inputs": [
        {
          "indexed": false,
          "internalType": "address",
          "name": "account",
          "type": "address"
        }
      ],
      "name": "Unpaused",
      "type": "event"
    },
    {
      "anonymous": false,
      "inputs": [
        {
          "indexed": true,
          "internalType": "address",
          "name": "account",
          "type": "address"
        }
      ],
      "name": "WhitelistAdminAdded",
      "type": "event"
    },
    {
      "anonymous": false,
      "inputs": [
        {
          "indexed": true,
          "internalType": "address",
          "name": "account",
          "type": "address"
        }
      ],
      "name": "WhitelistAdminRemoved",
      "type": "event"
    },
    {
      "anonymous": false,
      "inputs": [
        {
          "indexed": true,
          "internalType": "address",
          "name": "account",
          "type": "address"
        }
      ],
      "name": "WhitelistedAdded",
      "type": "event"
    },
    {
      "anonymous": false,
      "inputs": [
        {
          "indexed": true,
          "internalType": "address",
          "name": "account",
          "type": "address"
        }
      ],
      "name": "WhitelistedRemoved",
      "type": "event"
    },
    {
      "payable": true,
      "stateMutability": "payable",
      "type": "fallback"
    },
    {
      "constant": false,
      "inputs": [
        {
          "internalType": "address",
          "name": "account",
          "type": "address"
        }
      ],
      "name": "addPauser",
      "outputs": [],
      "payable": false,
      "stateMutability": "nonpayable",
      "type": "function"
    },
    {
      "constant": false,
      "inputs": [
        {
          "internalType": "address",
          "name": "account",
          "type": "address"
        }
      ],
      "name": "addWhitelistAdmin",
      "outputs": [],
      "payable": false,
      "stateMutability": "nonpayable",
      "type": "function"
    },
    {
      "constant": false,
      "inputs": [
        {
          "internalType": "address",
          "name": "account",
          "type": "address"
        }
      ],
      "name": "addWhitelisted",
      "outputs": [],
      "payable": false,
      "stateMutability": "nonpayable",
      "type": "function"
    },
    {
      "constant": true,
      "inputs": [
        {
          "internalType": "address",
          "name": "account",
          "type": "address"
        }
      ],
      "name": "isPauser",
      "outputs": [
        {
          "internalType": "bool",
          "name": "",
          "type": "bool"
        }
      ],
      "payable": false,
      "stateMutability": "view",
      "type": "function"
    },
    {
      "constant": true,
      "inputs": [
        {
          "internalType": "address",
          "name": "account",
          "type": "address"
        }
      ],
      "name": "isWhitelistAdmin",
      "outputs": [
        {
          "internalType": "bool",
          "name": "",
          "type": "bool"
        }
      ],
      "payable": false,
      "stateMutability": "view",
      "type": "function"
    },
    {
      "constant": true,
      "inputs": [
        {
          "internalType": "address",
          "name": "account",
          "type": "address"
        }
      ],
      "name": "isWhitelisted",
      "outputs": [
        {
          "internalType": "bool",
          "name": "",
          "type": "bool"
        }
      ],
      "payable": false,
      "stateMutability": "view",
      "type": "function"
    },
    {
      "constant": true,
      "inputs": [
        {
          "internalType": "uint256",
          "name": "",
          "type": "uint256"
        }
      ],
      "name": "participants",
      "outputs": [
        {
          "internalType": "address payable",
          "name": "",
          "type": "address"
        }
      ],
      "payable": false,
      "stateMutability": "view",
      "type": "function"
    },
    {
      "constant": false,
      "inputs": [],
      "name": "pause",
      "outputs": [],
      "payable": false,
      "stateMutability": "nonpayable",
      "type": "function"
    },
    {
      "constant": true,
      "inputs": [],
      "name": "paused",
      "outputs": [
        {
          "internalType": "bool",
          "name": "",
          "type": "bool"
        }
      ],
      "payable": false,
      "stateMutability": "view",
      "type": "function"
    },
    {
      "constant": false,
      "inputs": [
        {
          "internalType": "address",
          "name": "account",
          "type": "address"
        }
      ],
      "name": "removeWhitelisted",
      "outputs": [],
      "payable": false,
      "stateMutability": "nonpayable",
      "type": "function"
    },
    {
      "constant": false,
      "inputs": [],
      "name": "renouncePauser",
      "outputs": [],
      "payable": false,
      "stateMutability": "nonpayable",
      "type": "function"
    },
    {
      "constant": false,
      "inputs": [],
      "name": "renounceWhitelistAdmin",
      "outputs": [],
      "payable": false,
      "stateMutability": "nonpayable",
      "type": "function"
    },
    {
      "constant": false,
      "inputs": [],
      "name": "renounceWhitelisted",
      "outputs": [],
      "payable": false,
      "stateMutability": "nonpayable",
      "type": "function"
    },
    {
      "constant": false,
      "inputs": [],
      "name": "unpause",
      "outputs": [],
      "payable": false,
      "stateMutability": "nonpayable",
      "type": "function"
    },
    {
      "constant": false,
      "inputs": [
        {
          "internalType": "address payable[]",
          "name": "_participants",
          "type": "address[]"
        }
      ],
      "name": "setParticipants",
      "outputs": [],
      "payable": false,
      "stateMutability": "nonpayable",
      "type": "function"
    },
    {
      "constant": false,
      "inputs": [
        {
          "internalType": "address payable",
          "name": "participant",
          "type": "address"
        }
      ],
      "name": "addParticipant",
      "outputs": [],
      "payable": false,
      "stateMutability": "nonpayable",
      "type": "function"
    },
    {
      "constant": false,
      "inputs": [
        {
          "internalType": "uint256",
          "name": "index",
          "type": "uint256"
        }
      ],
      "name": "removeParticipantAtIndex",
      "outputs": [],
      "payable": false,
      "stateMutability": "nonpayable",
      "type": "function"
    },
    {
      "constant": false,
      "inputs": [
        {
          "internalType": "uint256",
          "name": "value",
          "type": "uint256"
        }
      ],
      "name": "splitFunds",
      "outputs": [],
      "payable": true,
      "stateMutability": "payable",
      "type": "function"
    },
    {
      "constant": false,
      "inputs": [],
      "name": "withdrawAllFunds",
      "outputs": [],
      "payable": false,
      "stateMutability": "nonpayable",
      "type": "function"
    }
  ],
  "bytecode": "0x60806040523480156200001157600080fd5b5062000026336001600160e01b036200006016565b6001805460ff1916905562000044336001600160e01b03620000b216565b6200005a336200010460201b6200045f1760201c565b62000325565b6200007b8160006200018660201b620011a61790919060201c565b6040516001600160a01b038216907f6719d08c1888103bea251a4ed56406bd0c3e69723c8a1686e017e7bbe159b6f890600090a250565b620000cd8160026200018660201b620011a61790919060201c565b6040516001600160a01b038216907f22380c05984257a1cb900161c713dd71d39e74820f1aea43bd3f1bdd2096129990600090a250565b62000118336001600160e01b036200022d16565b6200016f576040517f08c379a00000000000000000000000000000000000000000000000000000000081526004018080602001828103825260408152602001806200187e6040913960400191505060405180910390fd5b62000183816001600160e01b036200025016565b50565b6200019b82826001600160e01b03620002a216565b156200020857604080517f08c379a000000000000000000000000000000000000000000000000000000000815260206004820152601f60248201527f526f6c65733a206163636f756e7420616c72656164792068617320726f6c6500604482015290519081900360640190fd5b6001600160a01b0316600090815260209190915260409020805460ff19166001179055565b60006200024a826002620002a260201b62000fc21790919060201c565b92915050565b6200026b8160036200018660201b620011a61790919060201c565b6040516001600160a01b038216907fee1504a83b6d4a361f4c1dc78ab59bfa30d6a3b6612c403e86bb01ef2984295f90600090a250565b60006001600160a01b03821662000305576040517f08c379a00000000000000000000000000000000000000000000000000000000081526004018080602001828103825260228152602001806200185c6022913960400191505060405180910390fd5b506001600160a01b03166000908152602091909152604090205460ff1690565b61152780620003356000396000f3fe6080604052600436106101145760003560e01c80635c975abb116100a05780638456cb59116100645780638456cb5914610352578063bb5f747b14610367578063d6cd94731461039a578063dfafe10f146103af578063e004af5c146103e257610114565b80635c975abb146102985780636ef8d66d146102ad5780637362d9c8146102c25780638087859c146102f557806382dc1ec41461031f57610114565b80633af32abf116100e75780633af32abf146101df5780633f4ba83a1461022657806346fbf68e1461023b57806349649fbf1461026e5780634c5a628c1461028357610114565b806310154bad14610116578063291d9549146101495780632f1335cf1461017c57806335c1d34914610199575b005b34801561012257600080fd5b506101146004803603602081101561013957600080fd5b50356001600160a01b031661045f565b34801561015557600080fd5b506101146004803603602081101561016c57600080fd5b50356001600160a01b03166104af565b6101146004803603602081101561019257600080fd5b50356104fc565b3480156101a557600080fd5b506101c3600480360360208110156101bc57600080fd5b50356107be565b604080516001600160a01b039092168252519081900360200190f35b3480156101eb57600080fd5b506102126004803603602081101561020257600080fd5b50356001600160a01b03166107e5565b604080519115158252519081900360200190f35b34801561023257600080fd5b506101146107fe565b34801561024757600080fd5b506102126004803603602081101561025e57600080fd5b50356001600160a01b03166108cf565b34801561027a57600080fd5b506101146108e1565b34801561028f57600080fd5b506101146109ad565b3480156102a457600080fd5b506102126109b8565b3480156102b957600080fd5b506101146109c2565b3480156102ce57600080fd5b50610114600480360360208110156102e557600080fd5b50356001600160a01b03166109cb565b34801561030157600080fd5b506101146004803603602081101561031857600080fd5b5035610a18565b34801561032b57600080fd5b506101146004803603602081101561034257600080fd5b50356001600160a01b0316610bad565b34801561035e57600080fd5b50610114610bfa565b34801561037357600080fd5b506102126004803603602081101561038a57600080fd5b50356001600160a01b0316610cca565b3480156103a657600080fd5b50610114610cdd565b3480156103bb57600080fd5b50610114600480360360208110156103d257600080fd5b50356001600160a01b0316610ce6565b3480156103ee57600080fd5b506101146004803603602081101561040557600080fd5b81019060208101813564010000000081111561042057600080fd5b82018360208201111561043257600080fd5b8035906020019184602083028401116401000000008311171561045457600080fd5b509092509050610dc1565b61046833610cca565b6104a35760405162461bcd60e51b81526004018080602001828103825260408152602001806114566040913960400191505060405180910390fd5b6104ac81610e68565b50565b6104b833610cca565b6104f35760405162461bcd60e51b81526004018080602001828103825260408152602001806114566040913960400191505060405180910390fd5b6104ac81610eb0565b60015460ff1615610547576040805162461bcd60e51b815260206004820152601060248201526f14185d5cd8589b194e881c185d5cd95960821b604482015290519081900360640190fd5b30316105845760405162461bcd60e51b81526004018080602001828103825260238152602001806114966023913960400191505060405180910390fd5b61058d336107e5565b6105c85760405162461bcd60e51b815260040180806020018281038252603a8152602001806114b9603a913960400191505060405180910390fd5b6000811161061d576040805162461bcd60e51b815260206004820152601b60248201527f4e6f2076616c756520686173206265656e207370656369666965640000000000604482015290519081900360640190fd5b600454612710906000610636838363ffffffff610ef816565b9050600061064a858563ffffffff610ef816565b9050600061065e828463ffffffff610f6216565b905060005b8481101561072d5760006004828154811061067a57fe5b60009182526020822001546040516001600160a01b039091169250829085908381818185875af1925050503d80600081146106d1576040519150601f19603f3d011682016040523d82523d6000602084013e6106d6565b606091505b5050905080610723576040805162461bcd60e51b8152602060048201526014602482015273556e61626c6520746f2073656e642066756e647360601b604482015290519081900360640190fd5b5050600101610663565b507f1f646749c8749ad67f5962ab7129f0f6b737b972af0dcd92b7286acb07bde498866004604051808381526020018060200182810382528381815481526020019150805480156107a757602002820191906000526020600020905b81546001600160a01b03168152600190910190602001808311610789575b5050935050505060405180910390a1505050505050565b600481815481106107cb57fe5b6000918252602090912001546001600160a01b0316905081565b60006107f860038363ffffffff610fc216565b92915050565b610807336108cf565b6108425760405162461bcd60e51b815260040180806020018281038252603081526020018061137a6030913960400191505060405180910390fd5b60015460ff16610890576040805162461bcd60e51b815260206004820152601460248201527314185d5cd8589b194e881b9bdd081c185d5cd95960621b604482015290519081900360640190fd5b6001805460ff191690556040805133815290517f5db9ee0a495bf2e6ff9c91a7834c1ba4fdd244a5e8aa4e537bd38aeae4b073aa9181900360200190a1565b60006107f8818363ffffffff610fc216565b6108ea336107e5565b6109255760405162461bcd60e51b815260040180806020018281038252603a8152602001806114b9603a913960400191505060405180910390fd5b60405160009033903031908381818185875af1925050503d8060008114610968576040519150601f19603f3d011682016040523d82523d6000602084013e61096d565b606091505b50509050806104ac5760405162461bcd60e51b81526004018080602001828103825260218152602001806113aa6021913960400191505060405180910390fd5b6109b633611029565b565b60015460ff165b90565b6109b633611071565b6109d433610cca565b610a0f5760405162461bcd60e51b81526004018080602001828103825260408152602001806114566040913960400191505060405180910390fd5b6104ac816110b9565b610a21336107e5565b610a5c5760405162461bcd60e51b815260040180806020018281038252603a8152602001806114b9603a913960400191505060405180910390fd5b60045480610a9b5760405162461bcd60e51b81526004018080602001828103825260278152602001806113cb6027913960400191505060405180910390fd5b6000610aae82600163ffffffff61110116565b905080831115610b05576040805162461bcd60e51b815260206004820152601d60248201527f4172726179206f7574206f6620626f756e6473207265666572656e6365000000604482015290519081900360640190fd5b60048381548110610b1257fe5b600091825260209091200180546001600160a01b0319169055828114610b945760048181548110610b3f57fe5b600091825260209091200154600480546001600160a01b039092169185908110610b6557fe5b9060005260206000200160006101000a8154816001600160a01b0302191690836001600160a01b031602179055505b6004805490610ba790600019830161128e565b50505050565b610bb6336108cf565b610bf15760405162461bcd60e51b815260040180806020018281038252603081526020018061137a6030913960400191505060405180910390fd5b6104ac8161115e565b610c03336108cf565b610c3e5760405162461bcd60e51b815260040180806020018281038252603081526020018061137a6030913960400191505060405180910390fd5b60015460ff1615610c89576040805162461bcd60e51b815260206004820152601060248201526f14185d5cd8589b194e881c185d5cd95960821b604482015290519081900360640190fd5b6001805460ff1916811790556040805133815290517f62e78cea01bee320cd4e420270b5ea74000d11b0c9f74754ebdbfc544b05a2589181900360200190a1565b60006107f860028363ffffffff610fc216565b6109b633610eb0565b610cef336107e5565b610d2a5760405162461bcd60e51b815260040180806020018281038252603a8152602001806114b9603a913960400191505060405180910390fd5b6001600160a01b038116610d6f5760405162461bcd60e51b81526004018080602001828103825260268152602001806113546026913960400191505060405180910390fd5b600480546001810182556000919091527f8a35acfbc15ff81a39ae7d344fd709f28e8600b4aa8c65c6b64bfe7fe36bd19b0180546001600160a01b0319166001600160a01b0392909216919091179055565b610dca336107e5565b610e055760405162461bcd60e51b815260040180806020018281038252603a8152602001806114b9603a913960400191505060405180910390fd5b80610e57576040805162461bcd60e51b815260206004820152601f60248201527f4e6f206164647265737365732068617665206265656e20737570706c69656400604482015290519081900360640190fd5b610e63600483836112b2565b505050565b610e7960038263ffffffff6111a616565b6040516001600160a01b038216907fee1504a83b6d4a361f4c1dc78ab59bfa30d6a3b6612c403e86bb01ef2984295f90600090a250565b610ec160038263ffffffff61122716565b6040516001600160a01b038216907f270d9b30cf5b0793bbfd54c9d5b94aeb49462b8148399000265144a8722da6b690600090a250565b6000808211610f4e576040805162461bcd60e51b815260206004820152601a60248201527f536166654d6174683a206469766973696f6e206279207a65726f000000000000604482015290519081900360640190fd5b6000828481610f5957fe5b04949350505050565b600082610f71575060006107f8565b82820282848281610f7e57fe5b0414610fbb5760405162461bcd60e51b81526004018080602001828103825260218152602001806114136021913960400191505060405180910390fd5b9392505050565b60006001600160a01b0382166110095760405162461bcd60e51b81526004018080602001828103825260228152602001806114346022913960400191505060405180910390fd5b506001600160a01b03166000908152602091909152604090205460ff1690565b61103a60028263ffffffff61122716565b6040516001600160a01b038216907f0a8eb35e5ca14b3d6f28e4abf2f128dbab231a58b56e89beb5d636115001e16590600090a250565b61108260008263ffffffff61122716565b6040516001600160a01b038216907fcd265ebaf09df2871cc7bd4133404a235ba12eff2041bb89d9c714a2621c7c7e90600090a250565b6110ca60028263ffffffff6111a616565b6040516001600160a01b038216907f22380c05984257a1cb900161c713dd71d39e74820f1aea43bd3f1bdd2096129990600090a250565b600082821115611158576040805162461bcd60e51b815260206004820152601e60248201527f536166654d6174683a207375627472616374696f6e206f766572666c6f770000604482015290519081900360640190fd5b50900390565b61116f60008263ffffffff6111a616565b6040516001600160a01b038216907f6719d08c1888103bea251a4ed56406bd0c3e69723c8a1686e017e7bbe159b6f890600090a250565b6111b08282610fc2565b15611202576040805162461bcd60e51b815260206004820152601f60248201527f526f6c65733a206163636f756e7420616c72656164792068617320726f6c6500604482015290519081900360640190fd5b6001600160a01b0316600090815260209190915260409020805460ff19166001179055565b6112318282610fc2565b61126c5760405162461bcd60e51b81526004018080602001828103825260218152602001806113f26021913960400191505060405180910390fd5b6001600160a01b0316600090815260209190915260409020805460ff19169055565b815481835581811115610e6357600083815260209020610e63918101908301611315565b828054828255906000526020600020908101928215611305579160200282015b828111156113055781546001600160a01b0319166001600160a01b038435161782556020909201916001909101906112d2565b5061131192915061132f565b5090565b6109bf91905b80821115611311576000815560010161131b565b6109bf91905b808211156113115780546001600160a01b031916815560010161133556fe43616e6e6f7420616464207a65726f2061646472657373206173207061727469636970616e74506175736572526f6c653a2063616c6c657220646f6573206e6f742068617665207468652050617573657220726f6c654661696c656420746f20776974686472617720636f6e74726163742066756e6473546865207061727469636970616e7420616464726573736573206c69737420697320656d707479526f6c65733a206163636f756e7420646f6573206e6f74206861766520726f6c65536166654d6174683a206d756c7469706c69636174696f6e206f766572666c6f77526f6c65733a206163636f756e7420697320746865207a65726f206164647265737357686974656c69737441646d696e526f6c653a2063616c6c657220646f6573206e6f742068617665207468652057686974656c69737441646d696e20726f6c65546865726520617265206e6f20636f6e74726163742066756e647320746f2073656e6457686974656c6973746564526f6c653a2063616c6c657220646f6573206e6f742068617665207468652057686974656c697374656420726f6c65a265627a7a72315820bd6422e61e7b4c6fcbf736f52164f5b5bf63ebf5c1ae28eff07029c23092a09864736f6c634300050c0032526f6c65733a206163636f756e7420697320746865207a65726f206164647265737357686974656c69737441646d696e526f6c653a2063616c6c657220646f6573206e6f742068617665207468652057686974656c69737441646d696e20726f6c65",
  "source": "pragma solidity ^0.5.12;\n\nimport \"@openzeppelin/contracts/math/SafeMath.sol\";\nimport \"@openzeppelin/contracts/lifecycle/Pausable.sol\";\nimport \"@openzeppelin/contracts/access/roles/WhitelistedRole.sol\";\n\ncontract TrickleDownSplitter is Pausable, WhitelistedRole {\n    using SafeMath for uint256;\n\n    address payable[] public participants;\n\n    event FundsSplit(uint256 value, address payable[] participants);\n\n    modifier onlyWhenContractHasABalance() {\n        require(address(this).balance > 0, \"There are no contract funds to send\");\n        _;\n    }\n\n    constructor() public {\n        super.addWhitelisted(msg.sender);\n    }\n\n    function setParticipants(address payable[] calldata _participants) external onlyWhitelisted {\n        require(_participants.length > 0, \"No addresses have been supplied\");\n        participants = _participants;\n    }\n\n    function addParticipant(address payable participant) external onlyWhitelisted {\n        require(participant != address(0), \"Cannot add zero address as participant\");\n        participants.push(participant);\n    }\n\n    function removeParticipantAtIndex(uint256 index) external onlyWhitelisted {\n        uint256 numOfParticipants = participants.length;\n        require(participants.length > 0, \"The participant addresses list is empty\");\n\n        uint256 lastParticipantIndex = numOfParticipants.sub(1);\n        require(index <= lastParticipantIndex, \"Array out of bounds reference\");\n\n        delete participants[index];\n\n        // When the token to delete is the last token, the swap operation is unnecessary\n        if (index != lastParticipantIndex) {\n            participants[index] = participants[lastParticipantIndex];\n        }\n\n        participants.length--;\n    }\n\n    function splitFunds(uint256 value)\n    external payable\n    whenNotPaused\n    onlyWhenContractHasABalance\n    onlyWhitelisted {\n        require(value > 0, \"No value has been specified\");\n\n        uint256 modulo = 10000;\n        uint256 numOfParticipants = participants.length;\n        uint256 individualSharePercentage = modulo.div(numOfParticipants);\n        uint256 singleUnitOfValue = value.div(modulo);\n        uint256 individualShare = singleUnitOfValue.mul(individualSharePercentage);\n\n        for (uint i = 0; i < numOfParticipants; i++) {\n            address payable participant = participants[i];\n            /* solium-disable-next-line */\n            (bool success,) = participant.call.value(individualShare)(\"\");\n            require(success, \"Unable to send funds\");\n        }\n\n        emit FundsSplit(value, participants);\n    }\n\n    function withdrawAllFunds() external onlyWhitelisted {\n        /* solium-disable-next-line */\n        (bool success,) = msg.sender.call.value(address(this).balance)(\"\");\n        require(success, \"Failed to withdraw contract funds\");\n    }\n\n    function() external payable {}\n}\n",
  "sourcePath": "/Users/Natalie/Projects/trickle-down/contracts/contracts/TrickleDownSplitter.sol",
  "compiler": {
    "name": "solc",
    "version": "0.5.12+commit.7709ece9.Emscripten.clang"
  },
  "schemaVersion": "3.0.19",
  "updatedAt": "2020-01-06T11:05:09.581Z",
  "networkType": "ethereum",
  "devdoc": {
    "methods": {
      "pause()": {
        "details": "Called by a pauser to pause, triggers stopped state."
      },
      "paused()": {
        "details": "Returns true if the contract is paused, and false otherwise."
      },
      "unpause()": {
        "details": "Called by a pauser to unpause, returns to normal state."
      }
    }
  },
  "userdoc": {
    "methods": {}
  }
}